{
  "contractName": "FacebookFly",
  "abi": [
    {
      "inputs": [],
      "stateMutability": "nonpayable",
      "type": "constructor"
    },
    {
      "inputs": [
        {
          "internalType": "uint256",
          "name": "",
          "type": "uint256"
        }
      ],
      "name": "daos",
      "outputs": [
        {
          "internalType": "address",
          "name": "creator",
          "type": "address"
        },
        {
          "internalType": "string",
          "name": "groupId",
          "type": "string"
        },
        {
          "internalType": "string",
          "name": "metadataHash",
          "type": "string"
        },
        {
          "internalType": "address",
          "name": "daoAddress",
          "type": "address"
        }
      ],
      "stateMutability": "view",
      "type": "function"
    },
    {
      "inputs": [
        {
          "internalType": "string",
          "name": "",
          "type": "string"
        }
      ],
      "name": "fbGroupToDao",
      "outputs": [
        {
          "internalType": "uint256",
          "name": "",
          "type": "uint256"
        }
      ],
      "stateMutability": "view",
      "type": "function"
    },
    {
      "inputs": [
        {
          "internalType": "address",
          "name": "",
          "type": "address"
        }
      ],
      "name": "fbUsers",
      "outputs": [
        {
          "internalType": "string",
          "name": "",
          "type": "string"
        }
      ],
      "stateMutability": "view",
      "type": "function"
    },
    {
      "inputs": [
        {
          "internalType": "string",
          "name": "_groupId",
          "type": "string"
        },
        {
          "internalType": "string",
          "name": "_metadata",
          "type": "string"
        },
        {
          "internalType": "address",
          "name": "_dao",
          "type": "address"
        }
      ],
      "name": "create",
      "outputs": [],
      "stateMutability": "nonpayable",
      "type": "function"
    },
    {
      "inputs": [
        {
          "internalType": "string",
          "name": "_groupId",
          "type": "string"
        }
      ],
      "name": "getDaoFromfbGroup",
      "outputs": [
        {
          "components": [
            {
              "internalType": "address",
              "name": "creator",
              "type": "address"
            },
            {
              "internalType": "string",
              "name": "groupId",
              "type": "string"
            },
            {
              "internalType": "string",
              "name": "metadataHash",
              "type": "string"
            },
            {
              "internalType": "address",
              "name": "daoAddress",
              "type": "address"
            }
          ],
          "internalType": "struct FacebookFly.FbFly",
          "name": "dao",
          "type": "tuple"
        }
      ],
      "stateMutability": "view",
      "type": "function"
    },
    {
      "inputs": [
        {
          "internalType": "string",
          "name": "_userId",
          "type": "string"
        }
      ],
      "name": "updateFbUser",
      "outputs": [],
      "stateMutability": "nonpayable",
      "type": "function"
    }
  ],
  "bytecode": "0x608060405260006001553480156200001657600080fd5b5060405180608001604052803373ffffffffffffffffffffffffffffffffffffffff1681526020016040518060400160405280600581526020017f4662466c7900000000000000000000000000000000000000000000000000000081525081526020016040518060400160405280601e81526020017f6970667348617368436f6e7461696e696e674d657461646174614a736f6e0000815250815260200173dad714f1ff59f427f203ac1d056d80616e7b807b73ffffffffffffffffffffffffffffffffffffffff1681525060008080815260200190815260200160002060008201518160000160006101000a81548173ffffffffffffffffffffffffffffffffffffffff021916908373ffffffffffffffffffffffffffffffffffffffff160217905550602082015181600101908051906020019062000159929190620001d0565b50604082015181600201908051906020019062000178929190620001d0565b5060608201518160030160006101000a81548173ffffffffffffffffffffffffffffffffffffffff021916908373ffffffffffffffffffffffffffffffffffffffff160217905550905050600180819055506200027f565b828054600181600116156101000203166002900490600052602060002090601f016020900481019282601f106200021357805160ff191683800117855562000244565b8280016001018555821562000244579182015b828111156200024357825182559160200191906001019062000226565b5b50905062000253919062000257565b5090565b6200027c91905b80821115620002785760008160009055506001016200025e565b5090565b90565b61101c806200028f6000396000f3fe608060405234801561001057600080fd5b50600436106100625760003560e01c8063086bdfdd1461006757806314948ebf146100975780632148d399146100c75780635a9c2724146100f7578063ccbbd26014610113578063f857201014610146575b600080fd5b610081600480360361007c9190810190610a85565b610162565b60405161008e9190610de2565b60405180910390f35b6100b160048036036100ac9190810190610aef565b610212565b6040516100be9190610e24565b60405180910390f35b6100e160048036036100dc9190810190610aae565b61044c565b6040516100ee9190610e46565b60405180910390f35b610111600480360361010c9190810190610b30565b61047a565b005b61012d60048036036101289190810190610baf565b610643565b60405161013d9493929190610d8f565b60405180910390f35b610160600480360361015b9190810190610aef565b6107e3565b005b60026020528060005260406000206000915090508054600181600116156101000203166002900480601f01602080910402602001604051908101604052809291908181526020018280546001816001161561010002031660029004801561020a5780601f106101df5761010080835404028352916020019161020a565b820191906000526020600020905b8154815290600101906020018083116101ed57829003601f168201915b505050505081565b61021a61083a565b60008060038460405161022d9190610d78565b90815260200160405180910390205481526020019081526020016000206040518060800160405290816000820160009054906101000a900473ffffffffffffffffffffffffffffffffffffffff1673ffffffffffffffffffffffffffffffffffffffff1673ffffffffffffffffffffffffffffffffffffffff168152602001600182018054600181600116156101000203166002900480601f0160208091040260200160405190810160405280929190818152602001828054600181600116156101000203166002900480156103445780601f1061031957610100808354040283529160200191610344565b820191906000526020600020905b81548152906001019060200180831161032757829003601f168201915b50505050508152602001600282018054600181600116156101000203166002900480601f0160208091040260200160405190810160405280929190818152602001828054600181600116156101000203166002900480156103e65780601f106103bb576101008083540402835291602001916103e6565b820191906000526020600020905b8154815290600101906020018083116103c957829003601f168201915b505050505081526020016003820160009054906101000a900473ffffffffffffffffffffffffffffffffffffffff1673ffffffffffffffffffffffffffffffffffffffff1673ffffffffffffffffffffffffffffffffffffffff16815250509050919050565b6003818051602081018201805184825260208301602085012081835280955050505050506000915090505481565b600060038460405161048c9190610d78565b908152602001604051809103902054146104db576040517f08c379a00000000000000000000000000000000000000000000000000000000081526004016104d290610e04565b60405180910390fd5b60405180608001604052803373ffffffffffffffffffffffffffffffffffffffff1681526020018481526020018381526020018273ffffffffffffffffffffffffffffffffffffffff16815250600080600154815260200190815260200160002060008201518160000160006101000a81548173ffffffffffffffffffffffffffffffffffffffff021916908373ffffffffffffffffffffffffffffffffffffffff160217905550602082015181600101908051906020019061059f92919061088e565b5060408201518160020190805190602001906105bc92919061088e565b5060608201518160030160006101000a81548173ffffffffffffffffffffffffffffffffffffffff021916908373ffffffffffffffffffffffffffffffffffffffff16021790555090505060015460038460405161061a9190610d78565b908152602001604051809103902081905550600160008154809291906001019190505550505050565b60006020528060005260406000206000915090508060000160009054906101000a900473ffffffffffffffffffffffffffffffffffffffff1690806001018054600181600116156101000203166002900480601f0160208091040260200160405190810160405280929190818152602001828054600181600116156101000203166002900480156107155780601f106106ea57610100808354040283529160200191610715565b820191906000526020600020905b8154815290600101906020018083116106f857829003601f168201915b505050505090806002018054600181600116156101000203166002900480601f0160208091040260200160405190810160405280929190818152602001828054600181600116156101000203166002900480156107b35780601f10610788576101008083540402835291602001916107b3565b820191906000526020600020905b81548152906001019060200180831161079657829003601f168201915b5050505050908060030160009054906101000a900473ffffffffffffffffffffffffffffffffffffffff16905084565b80600260003373ffffffffffffffffffffffffffffffffffffffff1673ffffffffffffffffffffffffffffffffffffffff168152602001908152602001600020908051906020019061083692919061090e565b5050565b6040518060800160405280600073ffffffffffffffffffffffffffffffffffffffff1681526020016060815260200160608152602001600073ffffffffffffffffffffffffffffffffffffffff1681525090565b828054600181600116156101000203166002900490600052602060002090601f016020900481019282601f106108cf57805160ff19168380011785556108fd565b828001600101855582156108fd579182015b828111156108fc5782518255916020019190600101906108e1565b5b50905061090a919061098e565b5090565b828054600181600116156101000203166002900490600052602060002090601f016020900481019282601f1061094f57805160ff191683800117855561097d565b8280016001018555821561097d579182015b8281111561097c578251825591602001919060010190610961565b5b50905061098a919061098e565b5090565b6109b091905b808211156109ac576000816000905550600101610994565b5090565b90565b6000813590506109c281610fb8565b92915050565b600082601f8301126109d957600080fd5b81356109ec6109e782610e8e565b610e61565b91508082526020830160208301858383011115610a0857600080fd5b610a13838284610f65565b50505092915050565b600082601f830112610a2d57600080fd5b8135610a40610a3b82610eba565b610e61565b91508082526020830160208301858383011115610a5c57600080fd5b610a67838284610f65565b50505092915050565b600081359050610a7f81610fcf565b92915050565b600060208284031215610a9757600080fd5b6000610aa5848285016109b3565b91505092915050565b600060208284031215610ac057600080fd5b600082013567ffffffffffffffff811115610ada57600080fd5b610ae6848285016109c8565b91505092915050565b600060208284031215610b0157600080fd5b600082013567ffffffffffffffff811115610b1b57600080fd5b610b2784828501610a1c565b91505092915050565b600080600060608486031215610b4557600080fd5b600084013567ffffffffffffffff811115610b5f57600080fd5b610b6b86828701610a1c565b935050602084013567ffffffffffffffff811115610b8857600080fd5b610b9486828701610a1c565b9250506040610ba5868287016109b3565b9150509250925092565b600060208284031215610bc157600080fd5b6000610bcf84828501610a70565b91505092915050565b610be181610f29565b82525050565b610bf081610f29565b82525050565b6000610c0182610ef1565b610c0b8185610f1e565b9350610c1b818560208601610f74565b80840191505092915050565b6000610c3282610ee6565b610c3c8185610efc565b9350610c4c818560208601610f74565b610c5581610fa7565b840191505092915050565b6000610c6b82610ee6565b610c758185610f0d565b9350610c85818560208601610f74565b610c8e81610fa7565b840191505092915050565b6000610ca6602383610f0d565b91507f44414f20616c72656164792065786973747320666f7220746869732067726f7560008301527f70496400000000000000000000000000000000000000000000000000000000006020830152604082019050919050565b6000608083016000830151610d176000860182610bd8565b5060208301518482036020860152610d2f8282610c27565b91505060408301518482036040860152610d498282610c27565b9150506060830151610d5e6060860182610bd8565b508091505092915050565b610d7281610f5b565b82525050565b6000610d848284610bf6565b915081905092915050565b6000608082019050610da46000830187610be7565b8181036020830152610db68186610c60565b90508181036040830152610dca8185610c60565b9050610dd96060830184610be7565b95945050505050565b60006020820190508181036000830152610dfc8184610c60565b905092915050565b60006020820190508181036000830152610e1d81610c99565b9050919050565b60006020820190508181036000830152610e3e8184610cff565b905092915050565b6000602082019050610e5b6000830184610d69565b92915050565b6000604051905081810181811067ffffffffffffffff82111715610e8457600080fd5b8060405250919050565b600067ffffffffffffffff821115610ea557600080fd5b601f19601f8301169050602081019050919050565b600067ffffffffffffffff821115610ed157600080fd5b601f19601f8301169050602081019050919050565b600081519050919050565b600081519050919050565b600082825260208201905092915050565b600082825260208201905092915050565b600081905092915050565b6000610f3482610f3b565b9050919050565b600073ffffffffffffffffffffffffffffffffffffffff82169050919050565b6000819050919050565b82818337600083830152505050565b60005b83811015610f92578082015181840152602081019050610f77565b83811115610fa1576000848401525b50505050565b6000601f19601f8301169050919050565b610fc181610f29565b8114610fcc57600080fd5b50565b610fd881610f5b565b8114610fe357600080fd5b5056fea2646970667358221220fb0b05f47fcccca913eb9429544fda8730ecead9a2b22b3a47e9a7c17448fc4164736f6c63430006000033",
  "source": "pragma solidity ^0.6.0;\npragma experimental ABIEncoderV2;\n\ncontract FacebookFly {\n    \n    struct FbFly {\n        address creator;\n        string groupId;\n        string metadataHash; // stored on IPFS in IPLD format\n        address daoAddress;\n        // uint8 memberCount;\n        // mapping (uint8 => address) members; // verified using facebook api\n    }\n    \n    mapping (uint => FbFly) public daos;\n    uint daosCount = 0;\n    mapping(address => string) public fbUsers;\n    mapping (string => uint) public fbGroupToDao;\n    \n    constructor() public {\n        daos[0] = FbFly(msg.sender, \"FbFly\", \"ipfsHashContainingMetadataJson\", 0xDAd714F1fF59F427f203ac1d056d80616E7b807B);\n        daosCount = 1;\n    }\n    \n    \n    function create(string memory _groupId, string memory _metadata, address _dao) public {\n        require(fbGroupToDao[_groupId] == 0, \"DAO already exists for this groupId\");\n        daos[daosCount] = FbFly(msg.sender, _groupId, _metadata, _dao);\n        fbGroupToDao[_groupId] = daosCount;\n        daosCount ++;\n    }\n\n    // function approveDaoMembership\n\n    // function joinDao\n    \n    function getDaoFromfbGroup(string memory _groupId) public view returns (FbFly memory dao) {\n        return daos[fbGroupToDao[_groupId]];\n    }\n    \n    function updateFbUser(string memory _userId) public {\n        fbUsers[msg.sender] = _userId;\n    }\n\n    \n}\n",
  "sourcePath": "/media/dhiraj/code/fbfly/website/contracts/FacebookFly.sol",
  "compiler": {
    "name": "solc",
    "version": "0.6.0+commit.26b70077.Emscripten.clang"
  },
  "schemaVersion": "3.2.2",
  "updatedAt": "2020-07-20T21:06:23.420Z",
  "devdoc": {
    "methods": {}
  },
  "userdoc": {
    "methods": {}
  }
}